:030000000209CA28
:0C09CA00787FE4F6D8FD758139020A112F
:0C0E2C000A0B3F065B4F666D7D077F6F71
:100A5600EF14B408005054900A6B75F003A4C583D4
:100A660025F0C58373020A83020A87020A8B020AEB
:100A76008F020A93020A9B020AA3020AABD2A4803F
:100A86000ED2A48012D2A48016D2A4801AC2A4D2F6
:100A9600A3D2A28016C2A4D2A3C2A2800EC2A4C2AE
:100AA600A3D2A28006C2A4C2A3C2A2740B2DF8E6EA
:0D0AB600F5B07F017E00120DE2E4F5B022E4
:100B2400E4F515F508120DB5120AC38F09E5096439
:100B34000170230515531503E5157002F508E51535
:100B4400B40103750832E515B4020375084BE515C5
:100B5400B40303750864E515FD7C007F01120A5691
:020B640080C649
:03000B00020CA044
:100CA000C0E0C0F0C0D0758A9C758CFF050AE50ACB
:100CB00075F0648485F00AE50AC395085004D2945F
:0B0CC0008002C294D0D0D0F0D0E0320F
:100DE200EF1FAC0670011E4C600A7D027CEFDCFE38
:040DF200DDFC80ECB8
:010DF60022DA
:060E1D00C2A58FB0D2A7B0
:080E23007F027EEFDEFEDFFC22
:010E2B0022A4
:0A0E4600C2A6120E1DC2A7020E2361
:100D1200CFCDCFCECCCE1209677C007D0A120967F7
:040D2200ED2430FF8D
:0A0D2600D2A6120E1DC2A7020E2372
:100DCC00AE07BE0104ED148006BE0209ED243F44BB
:060DDC0080FF120E46220A
:100DF7007F38120E467F0C120E467F06120E467F74
:040E070001020E4690
:0A0E5000AC03120DCCAF04020D2616
:060CEF008B308A318932CE
:100CF500120DCCE4FDAB30AA31A9328D827583008B
:0C0D0500120928FF6006120D260D80E97F
:010D110022BF
:0C0C11007F0AEA24FFFDE434FFFC7E00B3
:080C1D008E2C8F2D8C2E8D2FE3
:100C25007F017E00E4FBEBC3952FE52E6480F8740D
:0E0C35008098500AAC2CAD2D1209550B80E8AA
:010C4300228E
:040D30008A1F8B206B
:100D3400120DCCAA21EAD39400400D120C11AC1F61
:080D4400AD20120D121A80ED22
:010D4C002284
:100B6600120DCCC3EA64809480400B7F2B120D26B5
:100B76008A1B8B1C800E7F2D120D26C3E49BF51C51
:100B8600E49AF51BAA1AEAD39400400D120C11AC94
:090B96001BAD1C120D121A80EDBA
:010B9F002233
:040BA0008A248B25F3
:100BA400120DCCAA26EAD3940040297F10120C130C
:100BB400AC24AD25CFCDCFCECCCE120967EF540FE8
:100BC400FEC3940AEE5004243080022437FF120D31
:040BD400261A80D18C
:010BD80022FA
:040BD9008A298B2AB0
:100BDD00120DCCAA2BEAD394004028EA24FFFDE4A1
:100BED0034FFFC7F027E00120C1DAC29AD2ACFCD47
:100BFD00CFCECCCE120967EF54012430FF120D2653
:030C0D001A80D278
:010C100022C1
:100AC300E4F5392091137F14FE120DE23091FD7F7E
:100AD300147E00120DE27539012090147F147E00FC
:100AE300120DE23090FD7F147E00120DE275390283
:100AF3002092147F147E00120DE23092FD7F147E4B
:100B030000120DE27539032093147F147E00120D39
:100B1300E23093FD7F147E00120DE2753904AF3984
:010B230022AF
:100DB5005389F0438901758A18758CFCC28DD28CD4
:070DC500D2A9D2AFC2B9228E
:100CCB008F338C348D351200007FA0120000120080
:100CDB0000AF33120000120000AF351200001200FB
:040CEB000002000003
:020C44008F36E9
:100C46001200007FA0120000120000AF3612000052
:100C56001200001200007FA1120000120000120014
:0D0C6600008F377F01120000120000AF3731
:010C7300225E
:0D0E3900120D6A7FCC120D847F44020D84DF
:100C7400120D6A7FCC120D847FBE120D84120D4DAD
:100C84008F38120D4DEFFEE538FFFDAC06EC12086F
:0B0C9400A5E4FBFA7980784112080308
:010C9F002232
:100D6A00D297C2977FF7DFFED2977F20DFFEA29746
:090D7A00E433FE7FF7DFFEAF0653
:010D8300224D
:100E0B00C2977E04DEFEEF24FF92977E18DEFED2A1
:010E1B00973F
:010E1C0022B3
:100D9D00C2977F02DFFED2977F02DFFEA297E43378
:070DAD00FE7F18DFFEAF0618
:010DB400221C
:020D8400AD07B9
:100D8600E4FC7401A804088002C333D8FC5DFF129A
:060D96000E0B0CBC08EC82
:010D9C002234
:100D4D00E4FDFC120D9DEF600D7401A804088002F6
:0C0D5D00C333D8FC42050CBC08E9AF050C
:010D69002267
:1008000002091DEC5D046005E85904700302091338
:100810001208DE580460F6EC4860F2EC7004FDFE4D
:10082000FF22C860DB2481C85009C39860025006CB
:1008300002091A9850CAF582E9294B4A7005AB8221
:1008400002090975F0007C1A7880C3EF9BEE9AEDDF
:1008500099400DC3EF9BFFEE9AFEED99FDE842F043
:10086000DC23ACF0D0E0FFD0E0FED0E0FDAB822096
:10087000E7101BEB60BAEC2CFCEF33FFEE33FEED20
:1008800033FD0208F5E803F830E705C0F075F00025
:10089000EF2FFFEE33FEED33FD40B830E7C280AA04
:1008A00075F020800E75F010800575F0087D007ED3
:1008B000007F003392D530D5031209BCEC334010D1
:1008C000EF33FFEE33FEED33FDEC33FCD5F0ED22DC
:0E08D000E5F0247EA2D513CC92E7CDCEFF2218
:1008DE00E9D2E7C933E833F892D5EDD2E7CD33EC60
:0708EE0033FC5002B2D522D9
:1008F500EC30E7100FBF000C0EBE00080DBD000464
:100905000BEB6014A2D5EB13FCED92E7FD2274FF0F
:10091500FCFDFEFF22E480F8A2D574FF13FC7D8068
:03092500E480EF7C
:1009D600020B24E493A3F8E493A34003F68001F208
:1009E60008DFF48029E493A3F85407240CC8C33322
:1009F600C4540F4420C8834004F456800146F6DFF1
:100A0600E4800B0102040810204080900E2CE47E46
:100A1600019360BCA3FF543F30E509541FFEE493E5
:100A2600A360010ECF54C025E060A840B8E493A3AC
:100A3600FAE493A3F8E493A3C8C582C8CAC583CAD7
:100A4600F0A3C8C582C8CAC583CADFE9DEE780BE8F
:010E380000B9
:10092800BB010CE58229F582E5833AF583E0225084
:1009380006E92582F8E622BBFE06E92582F8E222CE
:0D094800E58229F582E5833AF583E49322E8
:10095500EF8DF0A4A8F0CF8CF0A428CE8DF0A42EB6
:02096500FE2270
:10096700BC000BBE0029EF8DF084FFADF022E4CC74
:10097700F875F008EF2FFFEE33FEEC33FCEE9DEC3D
:10098700984005FCEE9DFE0FD5F0E9E4CEFD22ED83
:10099700F8F5F0EE8420D21CFEADF075F008EF2FCD
:1009A700FFED33FD4007985006D5F0F222C398FDBE
:0509B7000FD5F0EA225B
:0E09BC00C3E49FFFE49EFEE49DFDE49CFC224C
:00000001FF
